{
  "_format": "hh-sol-artifact-1",
  "contractName": "Faucet",
  "sourceName": "contracts/Faucet.sol",
  "abi": [
    {
      "inputs": [
        {
          "internalType": "address payable",
          "name": "recepient",
          "type": "address"
        }
      ],
      "name": "withdraw",
      "outputs": [],
      "stateMutability": "nonpayable",
      "type": "function"
    },
    {
      "stateMutability": "payable",
      "type": "receive"
    }
  ],
  "bytecode": "0x608060405234801561001057600080fd5b5060fe8061001f6000396000f3fe608060405260043610601f5760003560e01c806351cff8d914602a576025565b36602557005b600080fd5b348015603557600080fd5b50607560048036036020811015604a57600080fd5b81019080803573ffffffffffffffffffffffffffffffffffffffff1690602001909291905050506077565b005b8073ffffffffffffffffffffffffffffffffffffffff166108fc67016345785d8a00009081150290604051600060405180830381858888f1935050505015801560c4573d6000803e3d6000fd5b505056fea2646970667358221220d13e149a03fc196c6871d0f03538a44db9e463071b6a9ca5535a4551274dd8ea64736f6c63430007060033",
  "linkReferences": {},
  "deployedLinkReferences": {}
}